:1000000018F09FE518F09FE518F09FE510F09FE5C8
:100010000CF09FE5000000000CF09FE50CF09FE560
:10002000000300008C030000FC030000AC03000090
:10003000F4030000000000000000000000000000C9
:1000400000000000000000000000000000000000B0
:1000500000000000000000000000000000000000A0
:100060000000000000000000000000000000000090
:100070000000000000000000000000000000000080
:1003000088009FE5DBF021E300D0A0E1000040E29F
:10031000D7F021E300D0A0E1000040E2D1F021E3DA
:1003200000D0A0E1100040E2D2F021E300D0A0E133
:10033000010C40E2D3F021E300D0A0E1010C40E247
:10034000D0F021E300D0A0E102AB4DE240109FE5E8
:1003500040209FE540309FE5030052E104009134C6
:1003600004008234FBFFFF3A0000A0E32C109FE55D
:100370002C209FE5020051E104008134FCFFFF3A8C
:1003800020009FE50FE0A0E110FF2FE1FEFFFFEA54
:10039000580B0040A00F000000000040000000408B
:1003A0000000004044010040CD07000004E04EE2A0
:1003B00000402DE900E04FE10F502DE92C009FE5B2
:1003C000000F90E513F021E300402DE90FE0A0E1DC
:1003D00010FF2FE10040BDE892F021E30F50BDE88F
:1003E0000EF06FE104E09FE500EF8EE50080FDE890
:1003F00000F0FFFF04E04EE20EF0B0E100C04FE17C
:1004000020001CE3B2C05E1104C01E05FFC00CE258
:1004100007005CE30CF19F370EF0B0E138040000F8
:1004200048040000580400007C040000B4040000EC
:10043000D4040000E404000000004FE1C00080E3A9
:1004400000F061E10EF0B0E100004FE1C000C0E358
:1004500000F061E10EF0B0E194C09FE50000E0E340
:1004600014008CE52008A0E124008CE50100A0E345
:1004700020008CE5000F8CE50EF0B0E1200050E389
:100480000EF0B0216CC09FE500118CE768C09FE5BD
:1004900000218CE70110A0E31110A0E150C09FE5FE
:1004A0000C209CE50120C2E10C208CE510108CE5AD
:1004B0000EF0B0E1200050E30EF0B02130C09FE517
:1004C0000110A0E31110A0E10C108CE510108CE5D8
:1004D0000EF0B0E151F021E3001FB0E813F021E38A
:1004E0000EF0B0E151F021E3001FA0E813F021E38A
:1004F0000EF0B0E100F0FFFF00F1FFFF00F2FFFFA0
:10050000F0012DE903C011E21200000A0310C1E35B
:100510008CC1A0E120806CE28000B1E80730A0E14E
:10052000F000B1E8333CA0E1143883E1344CA0E1A1
:10053000154884E1355CA0E1165885E1366CA0E1F0
:10054000176886E1102052E27800A0E8F2FFFF1A57
:10055000F001BDE81EFF2FE17800B1E8102052E263
:100560007800A0E8FBFFFF1AF001BDE81EFF2FE1B5
:10057000F0012DE903C010E22100000A8CC1A0E1C6
:1005800020806CE2F000B1E80140C0E42444A0E126
:10059000030010E3FBFFFF1A154C84E13558A0E17E
:1005A000165C85E13668A0E1176C86E1102052E206
:1005B0007000A0E80730A0E1F000B1E83338A0E116
:1005C000143C83E13448A0E1154C84E13558A0E1A6
:1005D000165C85E13668A0E1176C86E1102052E2D6
:1005E0007800A0E8F2FFFF1A3778A0E108C05CE2CB
:1005F0000170C0E42774A0E1FBFFFF1AF001BDE821
:100600001EFF2FE17800B1E8102052E27800A0E848
:10061000FBFFFF1AF001BDE81EFF2FE101210E4A8A
:1006200013680B431360002203200C4B0C491A6023
:100630000B6803430B600B4B1A600B4B0B491A689A
:100640000A431A600A4A19680A401A60094A0A49A4
:1006500013680B4313607047A0C11FE050C0FF3FF9
:1006600040C0FF3F30C0FF3F20C0FF3F00001421CB
:10067000FFFF7FFF38C0FF3F0000142001228240AF
:10068000101C02490B6818430860704758C0FF3FB0
:1006900001228240101C02490B6818430860704711
:1006A0005CC0FF3F10B501280FD0002809D00228F8
:1006B00010D101228A40101C084C23681843206086
:1006C00008E0074A0120136801E0064A13688840E1
:1006D0001843106010BC01BC0047C04658C0FF3F23
:1006E00018C0FF3F38C0FF3F10B501280FD00028C9
:1006F00009D0022810D101228A40101C084C23681E
:100700001843206008E0074A0120136801E0064A08
:10071000136888401843106010BC01BC0047C046F5
:100720005CC0FF3F1CC0FF3F3CC0FF3F20221D4B71
:1007300070B51A601A685206FCD5AA205521012509
:100740000024194B194A1560186019601460184C80
:100750001860184E19602560174C266018601960E3
:1007600014682C4314601860196014490968490121
:10077000FBD503201249086000201249124C086082
:100780002060043008601168023801431160AA2219
:100790001A60553A1A6000F02FF800F02BF870BC80
:1007A00001BC0047A0C11FE08CC01FE080C01FE05B
:1007B0000CC11FE01700010084C01FE088C01FE0CB
:1007C00004C11FE0ACC11FE0A8C11FE008B5FFF7DE
:1007D000ADFF00F099F800F0CDFAFFF71FFF0348D6
:1007E000112100F005F900F014FAFCE7370F0000C2
:1007F00000DF704701DF704702DF704703DF70479B
:1008000004DF704705DF704706DF7047124B1A6838
:10081000124B1B681B0610B51B0ED2070CD51048D7
:10082000104C0A2B04D100F005F9002323700DE0D1
:100830002278511C217083544C2B02D103220A4B85
:1008400003E04F2B02D10322084B1A600022084B11
:100850001A6010BC01BC004714C000E000C000E0FA
:10086000100100400000004058C0FF3F5CC0FF3F47
:1008700000FFFFFF014BD8887047C04600000040D2
:100880000B4BDA880233002AFAD01A889918887933
:100890007F2101320A401A80002206490A609A88A4
:1008A000013A1204120C9A8007230B607047C0466D
:1008B0000000004004C000E010B5104B9A897F2A68
:1008C000FBD805220E490A60DA89002A0CD05A8921
:1008D0009C1820747F20013202405A819A8901328B
:1008E0001204120C9A8103E0064A10600122DA8198
:1008F00007230B6010BC01BC0047C04680000040CD
:1009000004C000E000C000E00821164A08B51368E2
:100910000B431360144B1A687B310A431A60134A65
:100920003E311160124AB839116000218020114A0D
:1009300011601968814319600F490B6879380343C6
:100940000B600E490B68493003430B6001211368AB
:100950000B4313604A380A490F22FFF74FFF08BCC8
:1009600001BC0047C4C01FE00CC000E028C000E08C
:1009700000C000E004C000E008C000E000C002E0E9
:100980000D0800000A220309033B534305321040BF
:10099000C0180004000C092802D901380004000C1A
:1009A000704738B5051C000AFFF7ECFF041C280649
:1009B000000EFFF7E7FF240100190004000C38BC0B
:1009C00002BC08470121074B1A688A431A60064A8D
:1009D00012689206FBD50121044A10601A680A4386
:1009E0001A60704704C000E014C000E000C000E0DE
:1009F00010B501240C4B1A68A2431C1C1A60002974
:100A00000BD00A4B1B689B06FBD50278084B0139BB
:100A100009041A600130090CF1E70122236813432D
:100A2000236010BC01BC004704C000E014C000E01B
:100A300000C000E010B520490522041C00F0ECF9CC
:100A400000280CD11D480921FFF7D2FF0D210220FB
:100A5000FFF728FE0120FFF711FE00F0BDF9201C72
:100A60001749042200F0D8F900280CD115480921B3
:100A7000FFF7BEFF0D210220FFF736FE0120FFF732
:100A800007FE00F0B9F9201C0F49032200F0C4F959
:100A9000002802D1201D00F0DFF8201C0B490422A1
:100AA00000F0BAF9002803D109488721FFF7A0FF19
:100AB00010BC01BC0047C046490F00004F0F0000AA
:100AC000590F00005E0F0000680F00006C0F00005F
:100AD000B00E000080210C4A136849000B43C0216E
:100AE00013600A4A136889020B4320211360084AE5
:100AF00013680B4313601222064B1A60064A07491B
:100B000013680B4313607047C4C01FE0A8C11FE007
:100B1000000002E00C0002E00CC002E000C3030091
:100B200030B50F21041C0020221C0A41114BD207B2
:100B300004D580251A686D042A4302E01D680E4A18
:100B40002A4080251A601A686D032A431A600B4AEE
:100B50001D682A401A601A6801238B40120203D5CF
:100B600003431804000C00E098430139DCD230BC88
:100B700002BC084734C0FF3FFFFFFFFEFFFFEFFF4F
:100B800008B5FFF7CDFF08BC02BC084730B5072108
:100B9000041C0020221C0A41114BD20704D58025D9
:100BA0001A686D042A4302E01D680E4A2A40802517
:100BB0001A601A686D032A431A600B4A1D682A409E
:100BC0001A601A6801238B40120203D503431806EA
:100BD000000E00E098430139DCD230BC02BC08476B
:100BE00034C0FF3FFFFFFFFEFFFFEFFF08B5FFF739
:100BF000CDFF08BC02BC0847034B1868034B1A68BA
:100C00000006C00F1A607047040002E0000002E016
:100C1000704738B580240D4A1368E40223431360FB
:100C20006020FFF7E3FFFF20FFF7E0FF051C084A05
:100C30001368234313600F210648FFF7D9FE281CD1
:100C4000FFF7C0FE38BC01BC0047C0463CC0FF3FB8
:100C500038C0FF3F710F000010B58024064A1368AA
:100C6000A40523431360FFF78BFF044A1368234353
:100C7000136010BC01BC00473CC0FF3F38C0FF3FC1
:100C800070B580250E4E3368ED022B4333600D4C5A
:100C90000820FFF7ABFF0520FFF772FF23682B4307
:100CA000236033682B4333605820FFF79FFFFF20FA
:100CB000FFF766FF23681D43256070BC02BC084730
:100CC0003CC0FF3F38C0FF3F70B580250E4E3368F3
:100CD000ED022B4333600D4C0820FFF787FF052002
:100CE000FFF74EFF23682B43236033682B433360A9
:100CF0005820FFF77BFFFF20FFF742FF23681D43CB
:100D0000256070BC02BC08473CC0FF3F38C0FF3FB5
:100D10003F2238B5134B1A60FFF7D6FF051CFFF7CB
:100D2000AFFF041C11211048FFF762FE280A0006DD
:100D3000000EFFF747FE2806000EFFF743FE0A21CC
:100D40000A48FFF755FE200A0006000EFFF73AFE9C
:100D50002006000EFFF736FE0022054B1A6038BC55
:100D600001BC0047004000E0810F0000930F00002D
:100D700000FFFFFF02210F4A08B513680B43136001
:100D800000230D4A13600D4A013911600C4A0231EB
:100D900011600C4A1360C8220B4B52001A600B4AB8
:100DA0000B4B04201A600B490F22FFF727FD08BCEC
:100DB00001BC0047C4C01FE0044000E0004000E068
:100DC000144000E0704000E00C4000E040190100D9
:100DD000184000E0110D00000121064A08B5136813
:100DE0000B43136002200C31FFF75CFC08BC01BC14
:100DF0000047C046044000E00121064A08B51368D8
:100E00008B43136002200C31FFF76EFC08BC01BC61
:100E10000047C046044000E0031C30B50020002A13
:100E20003AD01C1C0C43A40720D1032A1ED91C68ED
:100E30000D68AC421AD1043A002A2DD01A4D65191A
:100E4000A5432C1C194D2C420CD025E018680C68C9
:100E5000A0420BD1043A002A21D0134C0419844338
:100E60002C421CD104330431032AEFD81D780878B2
:100E7000013A854215D1002A11D0002D04D10EE08F
:100E8000002C0CD0002A0AD0013301311C780878DC
:100E9000013A8442F4D0201A30BC02BC084700203A
:100EA000FAE72C1C201AF7E7FFFEFEFE8080808008
:100EB000506C617A6D612070726F626520636F6E35
:100EC00074726F6C6C65720A2055736167653A0ABB
:100ED000202020207374617274202D20737461723D
:100EE00074206D6561737572656D656E74730A202B
:100EF00020202073746F70202D2066696E697368DE
:100F0000206D6561737572656D656E74730A20205E
:100F10002020736574203C766F6C746167653E2099
:100F20002D2070726F626520766F6C74616765202A
:100F300073657475700A000A4C504320696E6974B9
:100F400069616C697A65640A007374617274000A7D
:100F5000537461727465640A0073746F70000A538D
:100F6000746F707065640A007365740068656C70F6
:100F7000000A5350495F72656369657665643A207B
:100F8000000A4F757470757420766F6C74616765B4
:0E0F90003A20000A43757272656E743A2000B2
:00000001FF
