:1000000018F09FE518F09FE518F09FE510F09FE5C8
:100010000CF09FE5000000000CF09FE50CF09FE560
:10002000000300008C030000FC030000AC03000090
:10003000F4030000000000000000000000000000C9
:1000400000000000000000000000000000000000B0
:1000500000000000000000000000000000000000A0
:100060000000000000000000000000000000000090
:100070000000000000000000000000000000000080
:1003000088009FE5DBF021E300D0A0E1000040E29F
:10031000D7F021E300D0A0E1000040E2D1F021E3DA
:1003200000D0A0E1100040E2D2F021E300D0A0E133
:10033000010C40E2D3F021E300D0A0E1010C40E247
:10034000D0F021E300D0A0E102AB4DE240109FE5E8
:1003500040209FE540309FE5030052E104009134C6
:1003600004008234FBFFFF3A0000A0E32C109FE55D
:100370002C209FE5020051E104008134FCFFFF3A8C
:1003800020009FE50FE0A0E110FF2FE1FEFFFFEA54
:10039000580B00401C0D0000000000400000004011
:1003A00000000040440100403D07000004E04EE230
:1003B00000402DE900E04FE10F502DE92C009FE5B2
:1003C000000F90E513F021E300402DE90FE0A0E1DC
:1003D00010FF2FE10040BDE892F021E30F50BDE88F
:1003E0000EF06FE104E09FE500EF8EE50080FDE890
:1003F00000F0FFFF04E04EE20EF0B0E100C04FE17C
:1004000020001CE3B2C05E1104C01E05FFC00CE258
:1004100007005CE30CF19F370EF0B0E138040000F8
:1004200048040000580400007C040000B4040000EC
:10043000D4040000E404000000004FE1C00080E3A9
:1004400000F061E10EF0B0E100004FE1C000C0E358
:1004500000F061E10EF0B0E194C09FE50000E0E340
:1004600014008CE52008A0E124008CE50100A0E345
:1004700020008CE5000F8CE50EF0B0E1200050E389
:100480000EF0B0216CC09FE500118CE768C09FE5BD
:1004900000218CE70110A0E31110A0E150C09FE5FE
:1004A0000C209CE50120C2E10C208CE510108CE5AD
:1004B0000EF0B0E1200050E30EF0B02130C09FE517
:1004C0000110A0E31110A0E10C108CE510108CE5D8
:1004D0000EF0B0E151F021E3001FB0E813F021E38A
:1004E0000EF0B0E151F021E3001FA0E813F021E38A
:1004F0000EF0B0E100F0FFFF00F1FFFF00F2FFFFA0
:10050000F0012DE903C011E21200000A0310C1E35B
:100510008CC1A0E120806CE28000B1E80730A0E14E
:10052000F000B1E8333CA0E1143883E1344CA0E1A1
:10053000154884E1355CA0E1165885E1366CA0E1F0
:10054000176886E1102052E27800A0E8F2FFFF1A57
:10055000F001BDE81EFF2FE17800B1E8102052E263
:100560007800A0E8FBFFFF1AF001BDE81EFF2FE1B5
:10057000F0012DE903C010E22100000A8CC1A0E1C6
:1005800020806CE2F000B1E80140C0E42444A0E126
:10059000030010E3FBFFFF1A154C84E13558A0E17E
:1005A000165C85E13668A0E1176C86E1102052E206
:1005B0007000A0E80730A0E1F000B1E83338A0E116
:1005C000143C83E13448A0E1154C84E13558A0E1A6
:1005D000165C85E13668A0E1176C86E1102052E2D6
:1005E0007800A0E8F2FFFF1A3778A0E108C05CE2CB
:1005F0000170C0E42774A0E1FBFFFF1AF001BDE821
:100600001EFF2FE17800B1E8102052E27800A0E848
:10061000FBFFFF1AF001BDE81EFF2FE101210C4A8C
:1006200013680B431360002203200A4B0A491A6027
:100630000B6803430B60094B1A60094B09491A68A0
:100640000A431A60084A13680B4313607047C04698
:10065000A0C11FE050C0FF3F40C0FF3F30C0FF3F80
:1006600020C0FF3F0000042038C0FF3F012282402D
:10067000101C02490B6818430860704758C0FF3FC0
:1006800001228240101C02490B6818430860704721
:100690005CC0FF3F2022F8B51E4B1A601A68520654
:1006A000FCD5AA225523012600201B4C1B4D1C49BA
:1006B0002E601C4F226023602860226023600E6041
:1006C00019490F6022602360296831432960226044
:1006D0002360FFF7CBFF154B1B685B01FBD50322A3
:1006E000134B1A6000221349134B1A600A6004323C
:1006F0001A602B68023A13432B60AA232360553BF0
:10070000236000F035F8FFF789FF00F02FF8F8BC00
:1007100001BC0047A0C11FE08CC01FE080C01FE0EB
:100720000CC11FE01700010084C01FE088C01FE05B
:1007300004C11FE0A8C11FE0ACC11FE008B5FFF76E
:100740006DFFFFF7A7FF00F09BF800F07BF905486D
:10075000102100F0D3F80020FFF788FF122000F0EE
:10076000C5F9FBE7E70C000000DF704701DF7047C9
:1007700002DF704703DF704704DF704705DF704713
:1007800006DF7047124B1A68124B1B681B0610B528
:100790001B0ED2070CD51048104C0A2B04D100F0C8
:1007A000CFF8002323700DE02278511C2170835470
:1007B0004C2B02D103220A4B03E04F2B02D1032220
:1007C000084B1A600022084B1A6010BC01BC00479D
:1007D00014C000E000C000E0100100400000004034
:1007E00058C0FF3F5CC0FF3F00FFFFFF014BD888B0
:1007F0007047C046000000400B4BDA880233002AE5
:10080000FAD01A88991888797F2101320A401A8013
:10081000002206490A609A88013A1204120C9A8052
:1008200007230B607047C0460000004004C000E092
:1008300010B5104B9A897F2AFBD805220E490A6011
:10084000DA89002A0CD05A899C1820747F20013242
:1008500002405A819A8901321204120C9A8103E0F3
:10086000064A10600122DA8107230B6010BC01BC2C
:100870000047C0468000004004C000E000C000E027
:100880000821164A08B513680B431360144B1A6805
:100890007B310A431A60134A3E311160124AB8395B
:1008A000116000218020114A11601968814319608C
:1008B0000F490B68793803430B600E490B684930C8
:1008C00003430B60012113680B4313604A380A4944
:1008D0000F22FFF74FFF08BC01BC0047C4C01FE058
:1008E0000CC000E028C000E000C000E004C000E050
:1008F00008C000E000C002E08507000010B5012438
:100900000C4B1A68A2431C1C1A6000290BD00A4B1E
:100910001B689B06FBD50278084B013909041A6055
:100920000130090CF1E7012223681343236010BC56
:1009300001BC004704C000E014C000E000C000E0BB
:1009400010B517490522041C00F03EF9002804D117
:100950000130FFF78BFE00F035F9201C114904220D
:1009600000F032F9002803D1FFF780FE00F02BF9E8
:10097000201C0D49032200F027F9002802D1201D78
:1009800000F0E4F8201C0949042200F01DF90028B9
:1009900003D107488721FFF7B1FF10BC01BC004716
:1009A000F80C0000FE0C0000030D0000070D000015
:1009B000600C00001D2904D180210A4B89051A68AA
:1009C00005E012290DD18021064B1A68C9020A439D
:1009D0001A60054B054A1860054B1B6813680B43EA
:1009E000136070473CC0FF3F080002E038C0FF3F83
:1009F000040002E010B51D2904D180210D4B8905AA
:100A00001A6805E0122912D180210A4B1A68C9021E
:100A10000A431A60084A1368084B040A1C6000065F
:100A2000000E12681860064A13680B43136010BC6E
:100A300001BC00473CC0FF3F040002E0080002E0A8
:100A400038C0FF3FC0210F4A136889020B43802141
:100A500013600D4A136849000B4313600B4A136877
:100A6000D8390B431360FF22F021094B1A60094A61
:100A7000136889020B431360074A084913680B4344
:100A800013607047A8C11FE0C0C01FE0000002E073
:100A90000C0002E00CC002E04CC002E080800000CC
:100AA0001D2804D180200D4A8005136805E0122816
:100AB00012D18020094A1368C00200210343136049
:100AC000074A1368074B1960074912681B680A68D0
:100AD00002431B060A601B0E181C70473CC0FF3FF8
:100AE000040002E0080002E038C0FF3F10B51D28F6
:100AF00004D18020114A8005136805E0122818D11E
:100B000080200E4A1368C0020024034313600C497E
:100B10000C4A0B6814600B68136814601B060968A4
:100B200011681B0C0B4308490A6802431B040A6046
:100B30001B0C181C10BC02BC0847C0463CC0FF3F41
:100B4000040002E0080002E038C0FF3F08B5034897
:100B50000C21FFF7D3FE08BC01BC00470C0D0000C0
:100B60007047704770477047704702210D4A08B5BB
:100B700013680B43136000230B4A13600B4A0139BF
:100B800011600B4A1360C8220A4B1A600A4A0B4BC9
:100B900004201A600A490F22FFF7ECFD08BC01BCD3
:100BA0000047C046C0C01FE0044000E0004000E035
:100BB000704000E0104000E040190100184000E0E3
:100BC000690B000070477047031C30B50020002AF5
:100BD0003AD01C1C0C43A40720D1032A1ED91C6840
:100BE0000D68AC421AD1043A002A2DD01A4D65196D
:100BF000A5432C1C194D2C420CD025E018680C681C
:100C0000A0420BD1043A002A21D0134C041984438A
:100C10002C421CD104330431032AEFD81D78087804
:100C2000013A854215D1002A11D0002D04D10EE0E1
:100C3000002C0CD0002A0AD0013301311C7808782E
:100C4000013A8442F4D0201A30BC02BC084700208C
:100C5000FAE72C1C201AF7E7FFFEFEFE808080805A
:100C6000506C617A6D612070726F626520636F6E87
:100C700074726F6C6C65720A2055736167653A0A0D
:100C8000202020207374617274202D20737461728F
:100C900074206D6561737572656D656E74730A207D
:100CA00020202073746F70202D2066696E69736830
:100CB000206D6561737572656D656E74730A2020B1
:100CC0002020736574203C766F6C746167653E20EC
:100CD0002D2070726F626520766F6C74616765207D
:100CE00073657475700A004C504320696E697469AD
:100CF000616C697A65640A0073746172740073745C
:100D00006F70007365740068656C7000566F6C746A
:090D1000616765207365740A0037
:00000001FF
