:1000000018F09FE518F09FE518F09FE510F09FE5C8
:100010000CF09FE5000000000CF09FE50CF09FE560
:10002000000300008C030000FC030000AC03000090
:10003000F4030000000000000000000000000000C9
:1000400000000000000000000000000000000000B0
:1000500000000000000000000000000000000000A0
:100060000000000000000000000000000000000090
:100070000000000000000000000000000000000080
:1003000088009FE5DBF021E300D0A0E1000040E29F
:10031000D7F021E300D0A0E1000040E2D1F021E3DA
:1003200000D0A0E1100040E2D2F021E300D0A0E133
:10033000010C40E2D3F021E300D0A0E1010C40E247
:10034000D0F021E300D0A0E102AB4DE240109FE5E8
:1003500040209FE540309FE5030052E104009134C6
:1003600004008234FBFFFF3A0000A0E32C109FE55D
:100370002C209FE5020051E104008134FCFFFF3A8C
:1003800020009FE50FE0A0E110FF2FE1FEFFFFEA54
:10039000A80F00402C300000000000403C0400404A
:1003A0004004004098050040BD07000004E04EE214
:1003B00000402DE900E04FE10F502DE92C009FE5B2
:1003C000000F90E513F021E300402DE90FE0A0E1DC
:1003D00010FF2FE10040BDE892F021E30F50BDE88F
:1003E0000EF06FE104E09FE500EF8EE50080FDE890
:1003F00000F0FFFF04E04EE20EF0B0E100C04FE17C
:1004000020001CE3B2C05E1104C01E05FFC00CE258
:1004100007005CE30CF19F370EF0B0E138040000F8
:1004200048040000580400007C040000B4040000EC
:10043000D4040000E404000000004FE1C00080E3A9
:1004400000F061E10EF0B0E100004FE1C000C0E358
:1004500000F061E10EF0B0E194C09FE50000E0E340
:1004600014008CE52008A0E124008CE50100A0E345
:1004700020008CE5000F8CE50EF0B0E1200050E389
:100480000EF0B0216CC09FE500118CE768C09FE5BD
:1004900000218CE70110A0E31110A0E150C09FE5FE
:1004A0000C209CE50120C2E10C208CE510108CE5AD
:1004B0000EF0B0E1200050E30EF0B02130C09FE517
:1004C0000110A0E31110A0E10C108CE510108CE5D8
:1004D0000EF0B0E151F021E3001FB0E813F021E38A
:1004E0000EF0B0E151F021E3001FA0E813F021E38A
:1004F0000EF0B0E100F0FFFF00F1FFFF00F2FFFFA0
:10050000F0012DE903C011E21200000A0310C1E35B
:100510008CC1A0E120806CE28000B1E80730A0E14E
:10052000F000B1E8333CA0E1143883E1344CA0E1A1
:10053000154884E1355CA0E1165885E1366CA0E1F0
:10054000176886E1102052E27800A0E8F2FFFF1A57
:10055000F001BDE81EFF2FE17800B1E8102052E263
:100560007800A0E8FBFFFF1AF001BDE81EFF2FE1B5
:10057000F0012DE903C010E22100000A8CC1A0E1C6
:1005800020806CE2F000B1E80140C0E42444A0E126
:10059000030010E3FBFFFF1A154C84E13558A0E17E
:1005A000165C85E13668A0E1176C86E1102052E206
:1005B0007000A0E80730A0E1F000B1E83338A0E116
:1005C000143C83E13448A0E1154C84E13558A0E1A6
:1005D000165C85E13668A0E1176C86E1102052E2D6
:1005E0007800A0E8F2FFFF1A3778A0E108C05CE2CB
:1005F0000170C0E42774A0E1FBFFFF1AF001BDE821
:100600001EFF2FE17800B1E8102052E27800A0E848
:10061000FBFFFF1AF001BDE81EFF2FE101230E4A88
:1006200011680B43136000220C4B1A6003230C4922
:10063000086803430B600B4B1A600B4B0B4A19689D
:100640000A431A600A491A680A401A60094A0A4BA2
:1006500011680B4313607047A0C11FE050C0FF3FFB
:1006600040C0FF3F30C0FF3F20C0FF3F00001421CB
:10067000FFFF7FFF38C0FF3F0000142001238340AD
:10068000024A11680B4313607047C04658C0FF3FD1
:1006900001238340024A11680B4313607047C04630
:1006A0005CC0FF3F01280BD0002802D002280DD0EB
:1006B0007047074A01238B40106803431360F7E734
:1006C0008840044B1A6810431860F1E7024AF1E7CA
:1006D00018C0FF3F38C0FF3F58C0FF3F01280BD074
:1006E000002802D002280DD07047074A01238B4012
:1006F000106803431360F7E78840044B1A681043FF
:100700001860F1E7024AF1E71CC0FF3F3CC0FF3F21
:100710005CC0FF3F20221F4B70B51A609218196809
:100720001142FCD0AA245520012100251A4B1B4A56
:1007300011601C6018601560194D1C60194E18601E
:100740002960194D2E601C601860156829431160DE
:1007500080211C601860154CC90420680842FCD038
:1007600003201349086000201249134C08602060E0
:10077000043008600221106801431160AA221A6047
:10078000553A1A6000F030F800F02CF870BC01BC4B
:100790000047C046A0C11FE08CC01FE080C01FE022
:1007A0000CC11FE01700010084C01FE088C01FE0DB
:1007B00004C11FE0ACC11FE0A8C11FE010B5FFF7E6
:1007C000A9FF00F09DF800F0D9FCFFF727FF00F02B
:1007D000A6FB1121014800F00BF9FEE77E2F000077
:1007E00000DF704701DF704702DF704703DF7047AB
:1007F00004DF704705DF704706DF7047144B1A6847
:10080000144B1B681B0670B51B0ED20715D5124C76
:1008100012480A2B0DD1002523785A1C2270C5548A
:1008200000F0A2F9257000220D4B1A6070BC01BCCB
:1008300000472278511C217083544C2B03D1032292
:10084000084B1A60EFE74F2BEDD10322064BF8E778
:1008500014C000E000C000E0420400406405004015
:1008600000FFFFFF58C0FF3F5CC0FF3F014BD8882F
:100870007047C046420400400B4B02339A88002A5E
:10088000FCD01A88991888797F2101320A401A8091
:10089000002206490A609A88013A1204120C9A80D2
:1008A00007230B607047C0464204004004C000E0CC
:1008B00010B5104B9A897F2AFCD805220E490A6090
:1008C000DA89002A10D05A899C1820747F200132BE
:1008D00002405A819A8901321204120C9A8107232C
:1008E0000B6010BC01BC0047044A10600122DA8191
:1008F000F5E7C046C204004004C000E000C000E0CC
:100900000823164A11680B4310B513608322144B59
:1009100019680A43C1211A60124A1160124AB83993
:10092000116000218020114A11601968814319600B
:1009300007230F49086803430B6050230D490868DB
:1009400003430B60012311680B4313600A490F2214
:100950000620FFF74BFF10BC01BC0047C4C01FE0DE
:100960000CC000E028C000E000C000E004C000E0CF
:1009700008C000E000C002E0FD0700000A230209F1
:10098000033A53430F221040C0180004000C0928FA
:1009900002D901380004000C704770B50400000A49
:1009A000FFF7ECFF05002006000EFFF7E7FF2D0123
:1009B00040190004000C70BC02BC08470121094B1F
:1009C0001A688A4310B51A602022074C2168114228
:1009D000FCD0064A1060012219680A431A6010BC54
:1009E00001BC004704C000E014C000E000C000E00B
:1009F00070B501240D4B1A68A2431A600C4D1A0001
:100A00000C4B1F34002906D1012311680B431360DE
:100A100070BC01BC00471E682642FCD00678013934
:100A200009042E600130090CECE7C04604C000E068
:100A300000C000E014C000E00022F0B5037885B0EB
:100A400002922D2B02D12C3B0293013000273E0055
:100A5000431C01930378002B29D01C00303C092C47
:100A600031D92E2B55D1019B019AD41A1A785D1CCD
:100A7000131E1AD0303A0392092A37D9652B01D0B8
:100A8000452B12D12B782B2B46D16B78AA1C012039
:100A900000210A25303B092B47D941430C19250079
:100AA000002D47DCE343DB179C43002C4CD1029B19
:100AB000012B02D180231B06F6183800310005B047
:100AC000F0BC04BC10470022244B3800310001F078
:100AD000A9F806000F00200001F03EF832003B00AC
:100AE00000F0EEFE07000E000198B1E700221B4B5C
:100AF0003800310001F096F806000F00039801F06D
:100B00002BF83B00320000F0DBFE2B0007000E004C
:100B1000AAE7019D0024B1E72D2B01D06A1CB6E79E
:100B20000120AA1C6B784042B2E769435918137838
:100B30000132AFE7380031000022084B01F072F8B3
:100B4000013D07000E00ABE738003100044A054BB9
:100B500001F068F8013407000E00A6E70000244009
:100B60009A9999999999B93F70B502225B49050004
:100B700000F0B8FD002806D159480221FFF738FFE0
:100B80000120FFF77BFD05225649280000F0AAFD51
:100B9000041E0FD109215448FFF72AFF0D2102201E
:100BA000FFF780FD2000FFF769FD012000F0C4FA87
:100BB00000F016FB04224D49280000F093FD041EAE
:100BC00016D10D210220FFF789FD20008024FFF7B8
:100BD0005FFD00F015FB464A1368A405234313602C
:100BE0001D21444800F046F9434B1A6814431C6029
:100BF00003224249280000F075FD002816D1404B21
:100C00001B78281D012B4FD100F02CFD0404240C6F
:100C100004213C48FFF7ECFE200AFFF7CFFE200638
:100C2000000EFFF7CBFE200000F0D0F9032236497A
:100C3000280000F057FD002815D1314B1B78281DE6
:100C4000012B3ED100F00EFD0004000C00F0BEF9B7
:100C500001222E4B64201A7000F06EFA0020FFF77C
:100C60000DFD00F0BDFA04222949280000F03AFDEC
:100C7000002803D1D0212748FFF7BAFE06222649D3
:100C8000280000F02FFD002802D101221C4B1A7011
:100C900005222249280000F025FD002801D1184B2B
:100CA000187070BC01BC0047FFF7C6FE1C4A1D4B04
:100CB00000F006FE1C4A1D4B01F0DEF801F0C4F9FD
:100CC000A4E7FFF7B9FE164A164B00F0F9FD164AE5
:100CD000164B01F0D1F801F0B7F9B5E7902F0000FD
:100CE000CB2F0000932F0000992F0000A32F0000AE
:100CF0003CC0FF3F4212000038C0FF3FA82F000059
:100D000041040040AC2F0000B12F0000400400401F
:100D1000B52F0000AC2D0000BA2F0000C12F00003D
:100D2000D9CEF753E38539408B6CE7FBA9F1923FAD
:100D3000F0B580270F21002201247F04144B154EAB
:100D40001D6835401D6005000D41254217D01D6806
:100D50003D4380261D601D68760335431D60802558
:100D60001B682D042B420ED023008B401A43120423
:100D7000120C0139E2D21000F0BC02BC08471D6819
:100D8000054E3540E5E723008B409A43F1E7C04626
:100D900034C0FF3FFFFFEFFFFFFFFFFEF0B58027EE
:100DA0000721002201247F04144B154E1D68354095
:100DB0001D6005000D41254217D01D683D4380266A
:100DC0001D601D68760335431D6080251B682D045A
:100DD0002B420ED023008B401A431206120E01390B
:100DE000E2D21000F0BC02BC08471D68054E354039
:100DF000E5E723008B409A43F1E7C04634C0FF3F4C
:100E0000FFFFEFFFFFFFFFFEF0B580240F21002260
:100E1000012624028027144B1D687F033D431D607B
:100E20001D68044218D080277F043D431D600F4F8A
:100E30001D683D401D6080251B682D0464082B4201
:100E40000DD033008B401A431204120C0139E1D249
:100E50001000F0BC02BC0847054F3D40E6E73300F8
:100E60008B409A43F2E7C04634C0FF3FFFFFEFFFDD
:100E7000FFFFFFFE10B5122906D1FFF759FF03004F
:100E8000180010BC02BC08471D29F9D1FFF7BCFFB0
:100E9000F5E7F0B580270721002201247F04050033
:100EA0000D41134B25421BD01D683D4380261D601C
:100EB0001D68760335431D600E4E1D6835401D606C
:100EC00080251B682D042B420ED023008B401A4333
:100ED0001206120E0139E2D21000F0BC02BC084723
:100EE0001D68054E3540E1E723008B409A43F1E74A
:100EF00034C0FF3FFFFFEFFFFFFFFFFE10B51229D9
:100F000006D1FFF74BFF0300180010BC02BC0847D6
:100F100000231D29F8D1FFF7BCFFF4E770478023B9
:100F200070B58026244A11685B030B431360234D80
:100F30002B68F60233432B601221FF20FFF7DEFF00
:100F40001221FF201E4CFFF7D9FF1221FF20FFF7CF
:100F5000D5FF1221FF20FFF7D1FF23683343236021
:100F60002B6833432B6012211020FFF7C7FF12219B
:100F70001448FFF77FFF2368334323602B68334314
:100F80002B6012210820FFF7B9FF12210120FFF783
:100F900071FF23681E43266080262B68B605334305
:100FA0002B601D210848FFF765FF23681E4326605C
:100FB00070BC01BC0047C04634C0FF3F3CC0FF3F8F
:100FC00038C0FF3F011000006615000010B58024F6
:100FD000084A1368A4052343136080235B01184368
:100FE0001D21FFF747FF044B1A6814431C6010BC17
:100FF00001BC00473CC0FF3F38C0FF3F70B58024B4
:10100000114E3368E4022343336012211020FFF7AE
:1010100075FF80200D4D12214001FFF72BFF2B683B
:1010200023432B6033682343336012215820FFF79A
:1010300065FF12210648FFF71DFF2B681C432C603B
:1010400070BC02BC0847C0463CC0FF3F38C0FF3FF1
:10105000FFFF000070B58024104E3368E402234384
:101060000F4D336012211020FFF748FF12210D4869
:10107000FFF700FF2B6823432B6033682343336063
:1010800012215820FFF73AFF12210748FFF7F2FE1E
:101090002B681C432C6070BC02BC08473CC0FF3F5F
:1010A00038C0FF3F01100000FFFF000000000000FB
:1010B00010B5FFF7CFFF80240B4A0C4B1880136844
:1010C000E4022343136012211020FFF717FF802052
:1010D00012214001FFF7CEFE054A13682343136037
:1010E00010BC01BC0047C0463CC0FF3F6205004049
:1010F00038C0FF3F10B5FFF781FF80240A4A0B4B31
:1011000018801368E4022343136012211020FFF7B4
:10111000F5FE12210648FFF7ADFE064A1368234389
:10112000136010BC01BC00473CC0FF3F600500409D
:101130000110000038C0FF3F00220B4B70B51A6051
:101140000A4D0B4C642804D1FA232B60B4239B0076
:1011500006E006210748FFF74BFCFA232B60064BFD
:10116000236070BC01BC0047044000E00C4000E07C
:10117000184000E0C72F0000A08C000002210F4A99
:1011800013680B4310B51360002301210C4A136050
:101190000C4A116003210C4A11600C4A1360192299
:1011A0000B4B1A600B4A0C4B0C491A6004200F229F
:1011B000FFF71CFB10BC01BC0047C046C4C01FE0C9
:1011C000044000E0004000E0144000E0704000E017
:1011D0000C4000E040190100184000E01514000028
:1011E0000121064A10B513680B4313600D2102203C
:1011F000FFF758FA10BC01BC0047C046044000E0AD
:101200000121064A10B513688B4313600D2102209B
:10121000FFF764FA10BC01BC0047C046044000E080
:1012200070B586B00C1C051C01F05AFA0021061C92
:101230001422201C00F037FA2249281C01F046FA3B
:1012400000280CD00021281C01F022FA002806D02A
:101250001D49201C00F02FFA611C0A2201E00A221D
:10126000211C301C00F01DFA1849201C00F023FA44
:10127000301C01F01BF8011C281C00F061FF144910
:1012800001F068F801F02CFA0025C317C018584087
:101290000A2201A900F005FA0E4E01A800F01AFA80
:1012A0000623181A854205D2311C201C00F003FACF
:1012B0000135F2E701A9201C00F0FDF906B070BC71
:1012C00001BC0047000080BFCE2F0000D02F0000DF
:1012D00000247449D22F000070B5434B1B78E4B052
:1012E000424C434E012B38D142481021FFF780FB7E
:1012F000414D20880524A8420CD8404B0424984234
:1013000008D80324632805D8002409230221834236
:1013100064410C1B0A22694600F0C3F92104090C40
:10132000FFF766FB36480F21FFF762FB3088A842C3
:101330000CD8324B0424984208D80324632805D8DB
:10134000002409230221834264410C1B32A90A2292
:1013500000F0A7F92104090C33E0208800F0FCFB21
:101360001C4B1B4A00F05EFC1B4A1C4B00F0A6FA0B
:1013700000F092FE234B041C3088C01800F0ECFBF8
:10138000174A184B00F078FD00F086FE0121051C7D
:101390001D48FFF72DFB6946201CFFF741FF062182
:1013A0006846FFF725FB01211848FFF721FB32A90A
:1013B000281CFFF735FF062132A8FFF719FB012192
:1013C0001348FFF715FB64B070BC01BC0047C04672
:1013D000A94D9CDCEF50543F0C022B8716B93B40C3
:1013E000C9C04BBA775EE93F410400406205004046
:1013F00060050040D42F00000F270000E703000025
:10140000E52F00006BE8FFFFF52F0000F72F00002D
:10141000AF2F00003F228021F8B53C4B1A603C4AB8
:10142000136849030B4313603A4F3D78002D10D1E8
:10143000394C2378012B05D1FFF73AFE2570FFF7D1
:101440004BFF5CE0002B5AD1FFF754FE01232370C1
:1014500055E0324E3478652C19D164233370FFF790
:10146000F9FD80242E4A2F4B18801368E402234391
:10147000136012211020FFF741FD8020122140014E
:10148000FFF7F8FC284A13682343136037E0274D21
:10149000002C0CD0013C3470FFF7B0FD0023021C7F
:1014A0002868696812184B412A606B6027E0642243
:1014B00000232868696801F039F91D4B18806523FD
:1014C00033708026164A3C701368F602334313606B
:1014D00012211020FFF712FD12211648FFF7CAFC57
:1014E000114A136833431360002200232A606B60A3
:1014F000FFF7F2FEFFF784FE201CFFF7C9F8002279
:101500000D4B1A60F8BC01BC0047C046004000E02B
:1015100034C0FF3F40040040010000400000004094
:101520003CC0FF3F6205004038C0FF3F5805004007
:10153000600500400110000000FFFFFF031CF0B534
:10154000041C051C002085B0C833009302CD00F0B8
:10155000F9FD009B9D42F9D1184900F0AFFF00252D
:101560000190019901CC00F0EBFD00F007FB061C97
:10157000281C0F1C00F002FB321C029003913B1C44
:10158000301C391C00F04EFB0B1C021C0298039906
:1015900000F096F900F080FD009B051C9C42E0D114
:1015A000064900F08BFF00F0E9FA01F047FA00F07D
:1015B00073FD05B0F0BC02BC0847C04600004842BD
:1015C000031CF0B5041C071C051C002685B0323333
:1015D0000393287800F06AFE011C301C00F0B2FD75
:1015E000039B0135061C9D42F3D11D4900F066FFA7
:1015F0000190201CFFF7A2FF0024002502903878FC
:1016000000F054FE0299061C019800F099FD011C9F
:10161000301C01F03DF800280FD10299019800F02C
:1016200091FD011C301C01F051F8002805D1281C47
:10163000311C00F087FD0134051C039B01379F42DC
:10164000DDD10020002C06D0201C00F02FFE011C54
:10165000281C00F033FF05B0F0BC02BC0847C046B0
:10166000000048420A22002100F0DCB80A230022D0
:1016700000F052B8931E222B10B50C4602D9002060
:10168000087010BD0A2A06D1002804DA2D230B7039
:101690004042012100E00021214400F0CDF8204625
:1016A00010BDFFF7E7BF03460244934202D003F8A0
:1016B000011BFAE77047024610B513461C78013249
:1016C000002CFAD1013B11F8012B03F8012F002A5D
:1016D000F9D110BD034613F8012B002AFBD1181ACB
:1016E0000138704770B5A2B1451E01396B7811F809
:1016F000014F6E1CA34206D16FF00104641B144419
:10170000E04202D11C46181B70BD3546002BEDD1BE
:10171000F8E7104670BD00002DE9F0470F46404C39
:10172000D4F800903D4615F801EB09EB0E046678FD
:1017300006F0080404F0FF060CB12F46F2E77446E9
:101740002D2C03D1BD1C7C78012603E02B2C04BF7B
:101750007C78BD1C13B1102B0AD15AE0302C56D125
:101760002C7804F0DF04582C4CD16C78102302350F
:10177000002E14BF4FF000486FF00048B8FBF3FA9A
:101780000027BE4603FB1A8809EB040C9CF801C035
:101790001CF0040F01D0303C0BE01CF0030C1BD0FC
:1017A000BCF1010F0CBF4FF0370C4FF0570CCCEBD6
:1017B00004049C4210DAB7F1FF3F0AD0D64506D8A0
:1017C00001D1444503DC03FB0E4E012701E04FF03D
:1017D000FF3715F8014BD7E77C1C73460AD1002E62
:1017E0004FF0220114BF4FF000436FF0004301603F
:1017F0002AB911E00EB1CEF100036AB107B1691E3A
:10180000116009E03024002BB2D10823B0E70A238D
:10181000AEE7302CACD1A3E71846BDE8F08700BF97
:101820000400004013460A46014602480068FFF7DC
:1018300073BF00BF08000040F0B58BB003460F46F1
:101840006D461A4C04F1200E2E462068616808345B
:1018500003C674453546F7D1217920683171911E50
:10186000222930604FF0000001D938701CE07D1E45
:10187000B3FBF2F402FB14330AAE334413F8283CF2
:10188000411C05F8013F23460CB10846F0E77C54A3
:101890003A18C11A8B4206DAF95C1478FC5402F843
:1018A00001190133F5E738460BB0F0BDF92F000000
:1018B000FFF7C2BF81F0004102E000BF83F00043A8
:1018C00030B54FEA41044FEA430594EA050F08BFDB
:1018D00090EA020F1FBF54EA000C55EA020C7FEA9F
:1018E000645C7FEA655C00F0E2804FEA5454D4EB1C
:1018F0005555B8BF6D420CDD2C4480EA020281EAE6
:10190000030382EA000083EA010180EA020281EA1D
:101910000303362D88BF30BD11F0004F4FEA01316F
:101920004FF4801C4CEA113102D0404261EB41017E
:1019300013F0004F4FEA03334CEA133302D0524204
:1019400063EB430394EA050F00F0A780A4F10104C0
:10195000D5F1200E0DDB02FA0EFC22FA05F28018FA
:1019600041F1000103FA0EF2801843FA05F35941E0
:101970000EE0A5F120050EF1200E012A03FA0EFC5F
:1019800028BF4CF0020C43FA05F3C01851EBE37189
:1019900001F0004507D54FF0000EDCF1000C7EEBA6
:1019A00000006EEB0101B1F5801F1BD3B1F5001FE4
:1019B0000CD349085FEA30004FEA3C0C04F1010403
:1019C0004FEA445212F5800F80F09A80BCF1004F2C
:1019D00008BF5FEA500C50F1000041EB045141EAAE
:1019E000050130BD5FEA4C0C404141EB010111F4AF
:1019F000801FA4F10104E9D191F0000F04BF01465A
:101A00000020B1FA81F308BF2033A3F10B03B3F137
:101A100020020CDA0C3208DD02F1140CC2F10C02C7
:101A200001FA0CF021FA02F10CE002F11402D8BF25
:101A3000C2F1200C01FA02F120FA0CFCDCBF41EAF1
:101A40000C019040E41AA2BF01EB0451294330BDC0
:101A50006FEA04041F3C1CDA0C340EDC04F114049D
:101A6000C4F1200220FA04F001FA02F340EA030074
:101A700021FA04F345EA030130BDC4F10C04C4F1BA
:101A8000200220FA02F001FA04F340EA030029469A
:101A900030BD21FA04F0294630BD94F0000F83F4E4
:101AA000801306BF81F480110134013D4EE77FEAC7
:101AB000645C18BF7FEA655C29D094EA050F08BF13
:101AC00090EA020F05D054EA000C04BF19461046F4
:101AD00030BD91EA030F1EBF0021002030BD5FEA38
:101AE000545C05D14000494128BF41F0004130BD60
:101AF00014F580043CBF01F5801130BD01F00045B4
:101B000045F0FE4141F470014FF0000030BD7FEA26
:101B1000645C1ABF194610467FEA655C1CBF0B4621
:101B2000024650EA013406BF52EA033591EA030F38
:101B300041F4002130BD00BF90F0000F04BF002130
:101B4000704730B54FF4806404F132044FF0000563
:101B50004FF0000150E700BF90F0000F04BF0021DC
:101B6000704730B54FF4806404F1320410F0004542
:101B700048BF40424FF000013EE700BF42004FEA3D
:101B8000E2014FEA31014FEA02701FBF12F07F43BA
:101B900093F07F4F81F06051704792F0000F14BFB7
:101BA00093F07F4F704730B54FF4607401F00045FB
:101BB00021F0004120E700BF50EA010208BF704752
:101BC00030B54FF000050AE050EA010208BF704747
:101BD00030B511F0004502D5404261EB41014FF4B0
:101BE000806404F132045FEA915C3FF4DCAE4FF0B4
:101BF00003025FEADC0C18BF03325FEADC0C18BF9B
:101C0000033202EBDC02C2F1200300FA03FC20FAEB
:101C100002F001FA03FE40EA0E0021FA02F1144438
:101C2000C1E600BF70B54FF0FF0C4CF4E06C1CEA4D
:101C300011541DBF1CEA135594EA0C0F95EA0C0FC2
:101C400000F0DEF82C4481EA030621EA4C5123EA35
:101C50004C5350EA013518BF52EA033541F4801164
:101C600043F4801338D0A0FB02CE4FF00005E1FB17
:101C700002E506F00042E0FB03E54FF00006E1FB61
:101C800003569CF0000F18BF4EF0010EA4F1FF04A4
:101C9000B6F5007F64F5407404D25FEA4E0E6D41E4
:101CA00046EB060642EAC62141EA55514FEAC520F5
:101CB00040EA5E504FEACE2EB4F1FD0C88BFBCF571
:101CC000E06F1ED8BEF1004F08BF5FEA500E50F122
:101CD000000041EB045170BD06F0004646EA0101E8
:101CE00040EA020081EA0301B4EB5C04C2BFD4EB1A
:101CF0000C0541EA045170BD41F480114FF0000E13
:101D0000013C00F3AB8014F1360FDEBF002001F080
:101D1000004170BDC4F10004203C35DA0C341BDCFA
:101D200004F11404C4F1200500FA05F320FA04F0CC
:101D300001FA05F240EA020001F0004221F0004100
:101D400010EBD37021FA04F642EB06015EEA430E73
:101D500008BF20EAD37070BDC4F10C04C4F12005A3
:101D600000FA04F320FA05F001FA04F240EA020056
:101D700001F0004110EBD37041F100015EEA430E27
:101D800008BF20EAD37070BDC4F1200500FA05F247
:101D90004EEA020E20FA04F301FA05F243EA0203C6
:101DA00021FA04F001F0004121FA04F220EA0200D5
:101DB00000EBD3705EEA430E08BF20EAD37070BD1B
:101DC00094F0000F0FD101F00046400041EB0101FB
:101DD00011F4801F08BF013CF7D041EA060195F0DD
:101DE000000F18BF704703F00046520043EB030397
:101DF00013F4801F08BF013DF7D043EA0603704784
:101E000094EA0C0F0CEA135518BF95EA0C0F0CD08E
:101E100050EA410618BF52EA4306D1D181EA0301D4
:101E200001F000414FF0000070BD50EA410606BFCE
:101E30001046194652EA430619D094EA0C0F02D113
:101E400050EA013613D195EA0C0F05D152EA033658
:101E50001CBF104619460AD181EA030101F0004176
:101E600041F0FE4141F470014FF0000070BD41F0BF
:101E7000FE4141F4780170BD70B54FF0FF0C4CF499
:101E8000E06C1CEA11541DBF1CEA135594EA0C0FB8
:101E900095EA0C0F00F0A7F8A4EB050481EA030E05
:101EA00052EA03354FEA013100F088804FEA0333EC
:101EB0004FF0805545EA131343EA12634FEA0222BA
:101EC00045EA111545EA10654FEA00260EF000417B
:101ED0009D4208BF964244F1FD0404F5407402D2CD
:101EE0005B084FEA3202B61A65EB03055B084FEA5E
:101EF00032024FF480104FF4002CB6EB020E75EB5B
:101F0000030E22BFB61A754640EA0C005B084FEA82
:101F10003202B6EB020E75EB030E22BFB61A7546FF
:101F200040EA5C005B084FEA3202B6EB020E75EB4A
:101F3000030E22BFB61A754640EA9C005B084FEAC2
:101F40003202B6EB020E75EB030E22BFB61A7546CF
:101F500040EADC0055EA060E18D04FEA051545EABE
:101F600016754FEA06164FEAC30343EA52734FEA67
:101F7000C2025FEA1C1CC0D111F4801F0BD141EAE0
:101F800000014FF000004FF0004CB6E711F4801F45
:101F900004BF01430020B4F1FD0C88BFBCF5E06F25
:101FA0003FF6AFAEB5EB030C04BFB6EB020C5FEA35
:101FB000500C50F1000041EB045170BD0EF0004E8A
:101FC0004EEA113114EB5C04C2BFD4EB0C0541EABC
:101FD000045170BD41F480114FF0000E013C90E6B9
:101FE00045EA060E8DE60CEA135594EA0C0F08BF7D
:101FF00095EA0C0F3FF43BAF94EA0C0F0AD150EA7C
:1020000001347FF434AF95EA0C0F7FF425AF10460E
:1020100019462CE795EA0C0F06D152EA03353FF436
:10202000FDAE1046194622E750EA410618BF52EAB3
:1020300043067FF4C5AE50EA41047FF40DAF52EA87
:1020400043057FF4EBAE12E74FEA410212F50012AE
:1020500015D211D56FF47873B3EB625212D94FEAEF
:10206000C12343F0004343EA505311F0004F23FAD9
:1020700002F018BF404270474FF00000704750EA2E
:10208000013005D111F0004008BF6FF000407047EB
:102090004FF00000704700BF4FEA4102B2F1E04349
:1020A00024BFB3F5001CDCF1FE5C0DD901F0004C3F
:1020B0004FEAC0024CEA5070B2F1004F40EB83008F
:1020C00008BF20F00100704711F0804F21D113F1BB
:1020D0003872BCBF01F00040704741F480114FEAF4
:1020E0005252C2F11802C2F1200C10FA0CF320FA7D
:1020F00002F018BF40F001004FEAC1234FEAD3239A
:1021000003FA0CFC40EA0C0023FA02F34FEA430303
:10211000CCE77FEA625307D150EA01331EBF4FF08C
:10212000FE4040F44000704701F0004040F0FE40A7
:1021300040F40000704700BF80F0004002E000BFA4
:1021400081F0004142001FBF5FEA410392EA030FA2
:102150007FEA226C7FEA236C6AD04FEA1262D2EBEC
:102160001363C1BFD218414048404140B8BF5B42F1
:10217000192B88BF704710F0004F40F4000020F08A
:102180007F4018BF404211F0004F41F4000121F0A0
:102190007F4118BF494292EA030F3FD0A2F10102EA
:1021A00041FA03FC10EB0C00C3F1200301FA03F128
:1021B00000F0004302D5494260EB4000B0F5000F4B
:1021C00013D3B0F1807F06D340084FEA310102F10A
:1021D0000102FE2A51D2B1F1004F40EBC25008BFBC
:1021E00020F0010040EA03007047490040EB000086
:1021F00010F4000FA2F10102EDD1B0FA80FCACF1B5
:10220000080CB2EB0C0200FA0CF0AABF00EBC250B3
:1022100052421843BCBFD0401843704792F0000FA1
:1022200081F4000106BF80F400000132013BB5E7F4
:102230004FEA41037FEA226C18BF7FEA236C21D06A
:1022400092EA030F04D092F0000F08BF08467047CF
:1022500090EA010F1CBF0020704712F07F4F04D19D
:10226000400028BF40F00040704712F100723CBFB0
:1022700000F50000704700F0004343F0FE4040F4DA
:10228000000070477FEA226216BF08467FEA236398
:102290000146420206BF5FEA412390EA010F40F483
:1022A000800070474FF0000304E000BF10F00043CF
:1022B00048BF40425FEA000C08BF704743F09643B6
:1022C00001464FF000001CE050EA010208BF7047D1
:1022D0004FF000030AE000BF50EA010208BF704758
:1022E00011F0004302D5404261EB41015FEA010C6D
:1022F00002BF84460146002043F0B64308BFA3F165
:102300008053A3F50003BCFA8CF2083AA3EBC25346
:1023100010DB01FA02FC634400FA02FCC2F1200265
:10232000BCF1004F20FA02F243EB020008BF20F09C
:102330000100704702F1200201FA02FCC2F1200202
:1023400050EA4C0021FA02F243EB020008BF20EAF7
:10235000DC7070474FF0FF0C1CEAD0521EBF1CEA25
:10236000D15392EA0C0F93EA0C0F6FD01A4480EA13
:10237000010C400218BF5FEA41211ED04FF00063FC
:1023800043EA501043EA5111A0FB01310CF0004028
:10239000B1F5000F3EBF490041EAD3715B0040EA4E
:1023A000010062F17F02FD2A1DD8B3F1004F40EB1E
:1023B000C25008BF20F00100704790F0000F0CF0F1
:1023C000004C08BF49024CEA502040EA51207F3AB5
:1023D000C2BFD2F1FF0340EAC250704740F4000090
:1023E0004FF00003013A5DDC12F1190FDCBF00F081
:1023F00000407047C2F10002410021FA02F1C2F12F
:10240000200200FA02FC5FEA310040F1000053EACA
:102410004C0308BF20EADC70704792F0000F00F018
:10242000004C02BF400010F4000F013AF9D040EA1E
:102430000C0093F0000F01F0004C02BF490011F4B2
:10244000000F013BF9D041EA0C018FE70CEAD153B0
:1024500092EA0C0F18BF93EA0C0F0AD030F0004C30
:1024600018BF31F0004CD8D180EA010000F00040E4
:10247000704790F0000F17BF90F0004F084691F0A2
:10248000000F91F0004F14D092EA0C0F01D14202DC
:102490000FD193EA0C0F03D14B0218BF084608D1A5
:1024A00080EA010000F0004040F0FE4040F40000EF
:1024B000704740F0FE4040F4400070474FF0FF0C82
:1024C0001CEAD0521EBF1CEAD15392EA0C0F93EAC9
:1024D0000C0F69D0A2EB030280EA010C49024FEA1B
:1024E000402037D04FF0805343EA111143EA1013D4
:1024F0000CF000408B4238BF5B0042F17D024FF48C
:10250000000C8B4224BF5B1A40EA0C00B3EB510F66
:1025100024BFA3EB510340EA5C00B3EB910F24BF4F
:10252000A3EB910340EA9C00B3EBD10F24BFA3EBD4
:10253000D10340EADC001B0118BF5FEA1C1CE0D19C
:10254000FD2A3FF650AF8B4240EBC25008BF20F04F
:10255000010070470CF0004C4CEA50207F32C2BFA3
:10256000D2F1FF0340EAC250704740F400004FF040
:102570000003013A37E792F0000F00F0004C02BF71
:10258000400010F4000F013AF9D040EA0C0093F03B
:10259000000F01F0004C02BF490011F4000F013B95
:1025A000F9D041EA0C0195E70CEAD15392EA0C0FFD
:1025B00008D142027FF47DAF93EA0C0F7FF470AF35
:1025C000084676E793EA0C0F04D14B023FF44CAF78
:1025D00008466EE730F0004C18BF31F0004CCAD10D
:1025E00030F000427FF45CAF31F000437FF43CAF49
:1025F0005FE700BF4FF0FF3C06E000BF4FF0010C6B
:1026000002E000BF4FF0010C4DF804CD4FEA40024C
:102610004FEA41037FEA226C18BF7FEA236C11D096
:1026200001B052EA530C18BF90EA010F58BFB2EB49
:10263000030088BFC81738BF6FEAE17018BF40F0C9
:10264000010070477FEA226C02D15FEA402C05D17D
:102650007FEA236CE4D15FEA412CE1D05DF8040B02
:10266000704700BF844608466146FFE70FB5FFF795
:10267000C9FF002848BF10F1000F0FBD4DF808ED4D
:10268000FFF7F4FF0CBF012000205DF808FB00BF3E
:102690004DF808EDFFF7EAFF34BF012000205DF898
:1026A00008FB00BF4DF808EDFFF7E0FF94BF0120E5
:1026B00000205DF808FB00BF4DF808EDFFF7D2FFE2
:1026C00094BF012000205DF808FB00BF4DF808ED25
:1026D000FFF7C8FF34BF012000205DF808FB00BFF2
:1026E0004FEA4002B2F1FE4F0FD34FF09E03B3EB1F
:1026F00012620DD94FEA002343F0004310F0004F5F
:1027000023FA02F018BF404270474FF000007047B4
:1027100012F1610F01D1420205D110F0004008BF53
:102720006FF0004070474FF00000704753B94AB94E
:10273000002908BF00281CBF4FF0FF314FF0FF30C9
:1027400000F07AB9ADF1080C6DE904CE00F006F89E
:10275000DDF804E0DDE9022304B070472DE9F0471D
:102760008C460446089E002B4ED18A4215466CD9F1
:10277000B2FA82FEBEF1000F0BD0CEF1200301FAB7
:102780000EF120FA03FC02FA0EF54CEA010C00FAF5
:102790000EF44FEA1548BCFBF8F0AAB208FB10CCC7
:1027A00002FB00F3270C47EA0C418B4209D9491977
:1027B00000F1FF3780F01F818B4240F21C8102380C
:1027C0002944C91AB1FBF8F308FB131102FB03F704
:1027D000A4B244EA0142974209D9521903F1FF31E8
:1027E00080F00781974240F20481023B2A44D21BC9
:1027F00043EA0040002786B122FA0EF2002386E861
:102800000C003946BDE8F0878B4209D9002E00F054
:102810000E81002786E8030038463946BDE8F08778
:10282000B3FA83F7002F40F08C808B4202D38242B0
:1028300000F2F180841A61EB030C0120002EECD031
:1028400086E810103946BDE8F08712B90125B5FBBE
:10285000F2F5B5FA85FEBEF1000F32D1491B4FEA01
:1028600015481FFA85F90127B1FBF8F308FB13118E
:1028700009FB03F24FEA144C4CEA01418A4207D9A2
:10288000491903F1FF3002D28A4200F2C6800346A2
:10289000891AB1FBF8F008FB101109FB00F9A4B28A
:1028A00044EA0142914507D9521900F1FF3102D2A1
:1028B000914500F2B5800846C9EB020240EA0340A8
:1028C00099E7CEF1200205FA0EF521FA02FC4FEA53
:1028D0001548BCFBF8F71FFA85F908FB17C420FA66
:1028E00002F301FA0EF109FB07FA0B431A0C42EA54
:1028F000044CE24500FA0EF40AD91CEB050C07F172
:10290000FF3280F08680E24540F28380023FAC4493
:10291000CAEB0C0CBCFBF8F008FB10CC09FB00F177
:102920009BB243EA0C43994207D95B1900F1FF328D
:102930006BD2994269D902382B44591A40EA0747A9
:1029400092E7C7F1200E22FA0EF4BB4023434FEA70
:10295000134C21FA0EF4B4FBFCF81FFA83FA0CFBBB
:10296000184901FA07F50AFB08F420FA0EF10D43A5
:10297000290C41EA09418C4202FA07F200FA07F9F0
:1029800008D9C91808F1FF3041D28C423FD9A8F1CB
:1029900002081944091BB1FBFCF40CFB14110AFBDF
:1029A00004FAADB245EA01418A4507D9C91804F1D4
:1029B000FF3028D28A4526D9023C194444EA08400F
:1029C000A0FB0245CAEB0101A942A046AC4614D3C4
:1029D00029D07EB3B9EB080361EB0C0101FA0EF2CA
:1029E000FB40F94013430027716033603946BDE86E
:1029F000F0870B46FBE63846E3E6B4EB020865EBEE
:102A0000030C0138E5E70446D8E7104695E7804611
:102A1000C0E717467CE7384610E7023B294437E712
:102A200002382A4448E7A145E7D38C46D1E7374628
:102A30003046F2E63746F0E6704700BF2DE9F04732
:102A40008AB006460F4600F04DF8DFF894A0044621
:102A50009AF900300D4601333BD03046394600F03C
:102A6000EDF8002835D04FF000084FF0000942463D
:102A70004B463046394600F06BF950B301230093C2
:102A8000164B9AF80040019300230893CDE90467A0
:102A9000CDE9026714B9CDE9068909E042464B4603
:102AA00040464946FFF7E8F9022CCDE9060103D07C
:102AB000684600F0EBF818B900F072F921230360C2
:102AC000089B1BB100F06CF9089B0360DDE906016F
:102AD00001E0204629460AB0BDE8F0871E3000001C
:102AE000380400402DE9F041534FDFF84CC10F404E
:102AF000674506460D4686460A460C46034608D1FB
:102B000002460B46FFF78EF832462B46FEF7D8FEFC
:102B100090E000290EDC21F00047074300F0898097
:102B200041B102460B46FEF7C9FE02460B46FFF7CF
:102B3000A3F97FE0121513D11CB9DC0A153A5B0525
:102B4000FAE70021E00202D464000131FAE7C1F1A2
:102B500001000244C1F1200023FA00F004438B403D
:102B60004FF0000E7746A2F2FF32D107C4F31304F0
:102B700048BFD90F44F4801444BF5B0001EB440408
:102B80005610DA0F02EB44045B0016224FF40011DA
:102B90007818A042DEBF4718241A8E44D80F013A95
:102BA00000EB44044FEA43034FEA5101F0D194464D
:102BB00020254FF00041A7420CEB010002DB16D1AB
:102BC000984213D8002800EB010C05DABCF1000F85
:102BD00002DB07F1010800E0B846E41B834238BF7E
:102BE00004F1FF341B1A0A44474600E03C46D80F64
:102BF000013D00EB44044FEA43034FEA5101DAD1AF
:102C0000234307D0531C0BBF2A4602F001030EF1E9
:102C1000010ED21853081EF0010F18BF43F00043F5
:102C200018464FEA6E0101F17F5101F5001101EBE9
:102C300006552946BDE8F0810000F07F31F00043E1
:102C400010B51BD00F4AA1F58014944210D901F1A0
:102C5000FF410C4A01F5E001914209D9B3F5801F0B
:102C600008D3094A934207D1B0FA80F0400910BD59
:102C7000042010BD032010BD002010BD0028E6D1A7
:102C8000022010BDFFFFDF7F0000F07F00207047B3
:102C90004FF0FF3C06E000BF4FF0010C02E000BF28
:102CA0004FF0010C4DF804CD4FEA410C7FEA6C5C0B
:102CB0004FEA430C18BF7FEA6C5C1BD001B050EAAE
:102CC000410C0CBF52EA430C91EA030F02BF90EA99
:102CD000020F0020704710F1000F91EA030F58BF58
:102CE000994208BF90422CBFD8176FEAE37040F0BA
:102CF000010070474FEA410C7FEA6C5C02D150EA58
:102D0000013C07D14FEA430C7FEA6C5CD6D152EA12
:102D1000033CD3D05DF8040B704700BF84461046D7
:102D200062468C461946634600E000BF01B5FFF7D6
:102D3000B7FF002848BF10F1000F01BD4DF808EDA6
:102D4000FFF7F4FF0CBF012000205DF808FB00BF77
:102D50004DF808EDFFF7EAFF34BF012000205DF8D1
:102D600008FB00BF4DF808EDFFF7E0FF94BF01201E
:102D700000205DF808FB00BF4DF808EDFFF7CEFF1F
:102D800094BF012000205DF808FB00BF4DF808ED5E
:102D9000FFF7C4FF34BF012000205DF808FB00BF2F
:102DA000014B1868704700BF08000040506C617A02
:102DB0006D612070726F626520636F6E74726F6CEC
:102DC0006C65720A2055736167653A0A20202020DD
:102DD0007374617274202D207374617274206D6538
:102DE00061737572656D656E74730A20202020739F
:102DF000746F70202D2066696E697368206D65613F
:102E0000737572656D656E74730A2020202073657A
:102E100074203C766F6C746167653E202D20707263
:102E20006F626520766F6C74616765207365747579
:102E3000700A202020206E6174697665202D206E36
:102E40006F6E2D666F726D61746564206F7574703E
:102E500075740A202020206173636969202D206F1A
:102E6000757470757420696E206173636969207070
:102E7000726573656E746174696F6E0A000020205C
:102E8000202020202020202828282828202020201A
:102E900020202020202020202020202020208810DA
:102EA000101010101010101010101010101004043A
:102EB0000404040404040404101010101010104141
:102EC00041414141410101010101010101010101B2
:102ED0000101010101010101011010101010104247
:102EE0004242424242020202020202020202020282
:102EF0000202020202020202021010101020000060
:102F000000000000000000000000000000000000C1
:102F100000000000000000000000000000000000B1
:102F200000000000000000000000000000000000A1
:102F30000000000000000000000000000000000091
:102F40000000000000000000000000000000000081
:102F50000000000000000000000000000000000071
:102F60000000000000000000000000000000000061
:102F700000000000000000000000000000000A4CFB
:102F8000504320696E697469616C697A65640A00EE
:102F90005A3F007374617274000A537461727465ED
:102FA000640A0073746F7000736574000A4F4B0AF3
:102FB000006765740068656C70006E6174697665A1
:102FC00000617363696900313030687A0A002D004E
:102FD0002E0030000A0A566F6C746167652C20560B
:102FE00020203A20000A43757272656E742C206DA1
:102FF0006B413A20005600430030313233343536CD
:103000003738396162636465666768696A6B6C6DDD
:103010006E6F707172737475767778797A007371E8
:03302000727400C7
:0830240038F7FF7F01000000F6
:10302C00650100007D2E0000100000400000000033
:10303C0000000000FC02004064030040CC03004090
:10304C000000000000000000000000000000000074
:10305C000000000000000000000000000000000064
:10306C0000000000F72F000000000000000000002E
:10307C000000000000000000000000000000000044
:10308C000000000000000000000000000000000034
:10309C000000000000000000000000000000000024
:1030AC000000000000000000000000000000000014
:1030BC000000000000000000000000000000000004
:1030CC0000000000000000000000000000000000F4
:1030DC0000000000000000000100000000000000E3
:1030EC000E33CDAB34126DE6ECDE05000B000000A8
:1030FC0000000000000000000000000000000000C4
:10310C0000000000000000000000000000000000B3
:10311C0000000000000000000000000000000000A3
:10312C000000000000000000000000000000000093
:0C345C0000000000000000000100000063
:00000001FF
